:020000040000FA
:100000000C9462000C948A000C948A000C948A0070
:100010000C948A000C948A000C948A000C94360785
:100020000C948A000C948A000C948A000C948A0028
:100030000C948A000C948A000C948A000C948A0018
:100040000C9494060C948A000C9404070C94DE061D
:100050000C948A000C948A000C948A000C948A00F8
:100060000C948A000C948A000000000024002700F1
:100070002A0000000000250028002B0000000008D6
:10008000000201000003040700000000000000005F
:1000900000000000230026002900040404040404D6
:1000A0000404020202020202030303030303010227
:1000B00004081020408001020408102001020408F6
:1000C0001020AF0711241FBECFEFD8E0DEBFCDBF99
:1000D00011E0A0E0B1E0ECE1FAE102C005900D9280
:1000E000A634B107D9F722E0A6E4B1E001C01D9221
:1000F000A732B207E1F710E0C2E6D0E004C02197D2
:10010000FE010E94060DC136D107C9F70E941A08E8
:100110000C940C0D0C940000CF92DF92EF92FF92A2
:10012000CF93DF93B0910302A0E08111AB2F8091B8
:10013000040290E0880F991FAC0140575F4FC090B8
:100140000902D0900A02E0900B02F0900C0230E01D
:1001500020E0FA01C591D491E881B90190E080E0F6
:10016000EB23EA130AC02F5F3F4F6C157D058E0508
:100170009F0578F36FEF7FEFCB01DF91CF91FF9079
:10018000EF90DF90CF900895833081F028F4813094
:1001900099F08230A9F008958730A9F08830C9F02D
:1001A0008430B1F4809180008F7D03C08091800005
:1001B0008F7780938000089584B58F7784BD0895EC
:1001C00084B58F7DFBCF8091B0008F778093B00096
:1001D00008958091B0008F7DF9CF1F93CF93DF9367
:1001E000282F30E0F901E458FF4F8491F901E255DE
:1001F000FF4FD491F901E656FF4FC491CC23A9F0EB
:10020000162F81110E94C400EC2FF0E0EE0FFF1FAB
:10021000EE58FF4FA591B4918FB7F894EC9111115E
:1002200008C0D095DE23DC938FBFDF91CF911F9163
:100230000895DE2BF8CFCF93DF9390E0FC01E255D9
:10024000FF4F249186569F4FFC0184918823C9F06B
:1002500090E0880F991FFC01E859FF4FA591B491D8
:10026000FC01EE58FF4FC591D49161110DC09FB7AD
:10027000F8948C91209582238C938881282328835D
:100280009FBFDF91CF910895623051F49FB7F894EA
:100290003C91822F809583238C93E8812E2BEFCF86
:1002A0008FB7F894EC912E2B2C938FBFEACF3FB7EA
:1002B000F8948091570190915801A0915901B09103
:1002C0005A0126B5A89B05C02F3F19F00196A11D24
:1002D000B11D3FBFBA2FA92F982F8827BC01CD0190
:1002E000620F711D811D911D42E0660F771F881FEF
:1002F000991F4A95D1F708958F929F92AF92BF921E
:10030000CF92DF92EF92FF924B015C010E94570166
:100310006B017C010E9457016C197D098E099F09B0
:10032000683E734081059105A8F321E0821A910887
:10033000A108B10888EEC80E83E0D81EE11CF11CAC
:1003400081149104A104B10429F7FF90EF90DF908C
:10035000CF90BF90AF909F908F900895CF92DF92F3
:10036000EF92FF920F931F93CF93DF93CDB7DEB73A
:10037000C054D1400FB6F894DEBF0FBECDBF2FB72B
:10038000F89480915B0190915C01A0915D01B09126
:100390005E012FBF40910502509106026091070255
:1003A000709108028C019D01041B150B260B370B65
:1003B000B901A801403D57406105710590F4809155
:1003C0000D02C05CDE4F0FB6F894DEBF0FBECDBF8E
:1003D000DF91CF911F910F91FF90EF90DF90CF9021
:1003E00008958093050290930602A0930702B093AC
:1003F0000802109200021092FF011092FE0110926A
:10040000FD011092FC0162E0809101020E941B013B
:1004100061E070E080E090E00E947C0161E080910A
:1004200001020E941B0160E0809101020E94ED0028
:10043000809102028551823020F58BE291E1019793
:10044000F1F762E0809101020E941B0180910E028F
:1004500090E08230910538F0880F991F880F991F1E
:1004600005970197F1F7F89480E00E948C006F3FA8
:100470007F4F8F4F9F4F61F410920D02789480E070
:10048000A0CF64E170E080E090E00E947C01D9CFD1
:1004900081E00E948C006F3F7F4F8F4F9F4F61F331
:1004A0008E010F5F1F4F6E018FEBC81A8EEFD80AB7
:1004B000780180E00E948C00F70160837183828361
:1004C000938381E00E948C00F701648375838683A7
:1004D0009783F8E0EF0EF11CEC14FD0451F77894CB
:1004E00030E020E0F801C080D180E280F3804481D8
:1004F000558166817781FFEFCF16DF06EF06FF0695
:1005000031F04F3F8FEF58076807780719F41092C2
:100510000D02B5CFF90183E0F595E7958A95E1F7EE
:10052000E450FE4F8081880FC416D506E606F70614
:1005300010F180832F5F3F4F085F1F4F2832310536
:1005400089F6409100022091FC018091FD01280F65
:100550003327331F8091FE01280F311D8091FF0149
:10056000820F932F911D99274817190681F681E074
:1005700080930D0226CF8160DCCFDC01ED91FC91F0
:100580000190F081E02D0994AF92BF92CF92DF925B
:10059000EF92FF920F931F93CF93DF936C017B0138
:1005A0008B01040F151FEB015E01AE18BF08C017C9
:1005B000D10759F06991D601ED91FC910190F0813C
:1005C000E02DC6010995892B79F7C501DF91CF91FF
:1005D0001F910F91FF90EF90DF90CF90BF90AF9061
:1005E0000895FC01538D448D252F30E0842F90E039
:1005F000821B930B541710F0CF960895019708951E
:10060000FC01918D828D981761F0A28DAE0FBF2FE6
:10061000B11D5D968C91928D9F5F9F73928F90E03C
:1006200008958FEF9FEF0895FC01918D828D9817AB
:1006300031F0828DE80FF11D858D90E008958FEFE8
:100640009FEF0895FC01918D228D892F90E0805CB1
:100650009F4F821B91098F73992708958FE591E031
:100660000E94220321E0892B09F420E0822F0895C3
:1006700080E090E0892B29F00E942E0381110C94D8
:1006800000000895FC01A48DA80FB92FB11DA35A35
:10069000BF4F2C91848D90E001968F739927848FA2
:1006A000A689B7892C93A089B1898C9183708064C5
:1006B0008C93938D848D981306C00288F389E02D66
:1006C00080818F7D80830895EF92FF920F931F9317
:1006D000CF93DF93EC0181E0888F9B8D8C8D9813F5
:1006E0001AC0E889F989808185FF15C09FB7F89401
:1006F000EE89FF896083E889F9898081837080644D
:1007000080839FBF81E090E0DF91CF911F910F9197
:10071000FF90EF900895F62E0B8D10E00F5F1F4FA6
:100720000F731127E02E8C8D8E110CC00FB607FCB5
:10073000FACFE889F989808185FFF5CFCE010E9443
:100740004203F1CFEB8DEC0FFD2FF11DE35AFF4F6C
:10075000F0829FB7F8940B8FEA89FB8980818062D1
:10076000CFCFCF93DF93EC01888D8823B9F0AA898E
:10077000BB89E889F9898C9185FD03C0808186FD5C
:100780000DC00FB607FCF7CF8C9185FFF2CF8081AB
:1007900085FFEDCFCE010E944203E9CFDF91CF91DB
:1007A0000895089590E080E00895CF93DF93EC01E1
:1007B00060E08E810E94ED0061E08E810E94ED007C
:1007C00060E08E810E94ED008BE891E00197F1F7E7
:1007D000DF91CF910895CF92DF92EF92FF920F9326
:1007E0001F93CF93DF936C017C0187E0E80EF11C2F
:1007F000D0E0C0E0062F10E0B8010C2E02C07595C5
:1008000067950A94E2F76170F70181917F010E9478
:10081000ED002196C430D10579F7C601DF91CF9163
:100820001F910F91FF90EF90DF90CF900C94D50324
:10083000CF92DF92EF92FF920F931F93CF93DF93AC
:10084000EC01F62E642F8C810E94ED008D818F3F8C
:1008500019F060E00E94ED000F2D10E08F8584FFFD
:1008600025C06E0187E0C80ED11CF12CE12CB80127
:100870000E2C02C0759567950A94E2F76170F60137
:1008800081916F010E94ED00FFEFEF1AFF0A88E0EF
:10089000E816F10461F7CE01DF91CF911F910F911E
:1008A000FF90EF90DF90CF900C94D503B80184E0D7
:1008B000759567958A95E1F7CE010E94EB036F2D40
:1008C000CE01DF91CF911F910F91FF90EF90DF90BC
:1008D000CF900C94EB0340E0682F8FE092E00C94F3
:1008E0001804CF93DF93813029F090911E02986015
:1008F00090931E02809322021092230280E4809340
:10090000240280E18093250280E58093260261E045
:10091000809113020E941B01809114028F3F19F0F5
:1009200061E00E941B0161E0809115020E941B01A1
:10093000CFE0D2E09E012F50324080911E0284FD14
:100940000BC084E090E021962817390744F461E059
:100950008E810E941B01EECF88E090E0F4CF8BE304
:100960009DE00197F1F760E0809113020E94ED0095
:1009700060E0809115020E94ED00809114028F3F8B
:1009800019F060E00E94ED0080911E0284FD39C0E4
:1009900063E08FE092E00E94EB03CBE4D6E4CE016B
:1009A0000197F1F763E08FE092E00E94EB0321975B
:1009B000F1F763E08FE092E00E94EB0383E592E0C1
:1009C0000197F1F762E08FE092E00E94EB038091E3
:1009D0001E0280620E946B0484E080931F028CE000
:1009E0000E946B0481E00E946B048BE39FE10197FE
:1009F000F1F782E08093200286E0DF91CF910C94A2
:100A00006B0480620E946B048BE496E40197F1F71B
:100A100080911E0280620E946B0483E592E0019740
:100A2000F1F780911E0280620E946B04D0CF41E0FA
:100A30000E94180481E090E00895FB0101900020DD
:100A4000E9F73197AF01461B570BDC01ED91FC91A3
:100A50000280F381E02D09948F929F92AF92BF9212
:100A6000EF92FF920F931F93CF93DF93CDB7DEB733
:100A7000A1970FB6F894DEBF0FBECDBF7C01FA017F
:100A8000CB0119A2223008F42AE08E010F5D1F4F1E
:100A9000822E912CB12CA12CBF01A50194010E94A2
:100AA000E40CF901CA016A300CF5605DD8016E935F
:100AB0008D01232B242B252B79F790E080E01097D4
:100AC00021F0BD01C7010E941D05A1960FB6F89443
:100AD000DEBF0FBECDBFDF91CF911F910F91FF9071
:100AE000EF90BF90AF909F908F900895695CDECF9C
:100AF000CF92DF92EF92FF920F931F93CF93DF93EA
:100B00006B01770FEE08FF08F7FE1BC0EC016DE2EA
:100B10000E94BD028C0144275527BA014C195D097A
:100B20006E097F092AE0CE010E942C05800F911FDB
:100B3000DF91CF911F910F91FF90EF90DF90CF90B9
:100B400008952AE0B701A601DF91CF911F910F917F
:100B5000FF90EF90DF90CF900C942C052F923F9256
:100B60004F925F926F927F928F929F92AF92BF92BD
:100B7000CF92DF92EF92FF921F93CF93DF93EC011E
:100B80006A017B01722EAB019601CB01B6010E9476
:100B9000DF0C6EE171E0811126C046015701E89437
:100BA000B7F82FEF3FEF4FE75FE7C501B4010E94B1
:100BB000DF0C81110CC02FEF3FEF4FE75FE7C5015E
:100BC000B4010E94150B62E271E0181664F02FEF79
:100BD0003FEF4FE75FE4C701B6010E946D0C1816A6
:100BE000B4F466E271E0CE01DF91CF911F91FF90E6
:100BF000EF90DF90CF90BF90AF909F908F907F90BD
:100C00006F905F904F903F902F900C941D052FEFA9
:100C10003FEF4FE75FECC701B6010E94150B87FD60
:100C2000E0CF20E030E0A901C701B6010E94150B1A
:100C3000312C212C87FF09C06DE2CE010E94BD023C
:100C40001C01F7FAF094F7F8F09410E060E070E01F
:100C500080E09FE3711641F020E030E040E251E493
:100C60000E941A0B1F5FF6CFA70196010E94A90AE6
:100C70002B013C010E948C0B4B015C012AE0BC0162
:100C8000A401CE010E942C057C01E20CF31C11236F
:100C9000C1F1C501B4010E94BB0B9B01AC01C301B2
:100CA000B2010E94A80A4B015C016EE2CE010E94D3
:100CB000BD02E80EF91E115020F120E030E040E2C4
:100CC00051E4C501B4010E94720C2B013C010E9449
:100CD0008C0B4B01B12CA12C2AE0B501A401CE0153
:100CE0000E942C05E80EF91EC501B4010E94BB0B41
:100CF0009B01AC01C301B2010E94A80A4B015C0137
:100D0000DACFC701DF91CF911F91FF90EF90DF9075
:100D1000CF90BF90AF909F908F907F906F905F909B
:100D20004F903F902F9008951F920F920FB60F9201
:100D300011242F933F938F939F93AF93BF938091F1
:100D40005B0190915C01A0915D01B0915E013091D9
:100D5000560123E0230F2D3758F50196A11DB11D33
:100D60002093560180935B0190935C01A0935D01F9
:100D7000B0935E018091570190915801A091590163
:100D8000B0915A010196A11DB11D80935701909316
:100D90005801A0935901B0935A01BF91AF919F910F
:100DA0008F913F912F910F900FBE0F901F9018952C
:100DB00026E8230F0296A11DB11DD2CF1F920F92DC
:100DC0000FB60F9211242F933F934F935F936F931E
:100DD0007F938F939F93AF93BF93EF93FF938FE591
:100DE00091E00E944203FF91EF91BF91AF919F91DB
:100DF0008F917F916F915F914F913F912F910F90C4
:100E00000FBE0F901F9018951F920F920FB60F9262
:100E100011242F938F939F93EF93FF93E0916F0192
:100E2000F09170018081E0917501F091760182FD71
:100E30001BC09081809178018F5F8F732091790121
:100E4000821741F0E0917801F0E0E15AFE4F958F72
:100E500080937801FF91EF919F918F912F910F9047
:100E60000FBE0F901F9018958081F4CF1F920F92A4
:100E70000FB60F9211240F931F932F933F934F930D
:100E80005F936F937F938F939F93AF93BF932091C3
:100E9000840030918500B09B0BC081E086BB8091BF
:100EA0004D0190914E01019690934E0180934D011A
:100EB00080914F01909150010196409147015091CE
:100EC00048018417950708F445C01092500110920C
:100ED0004F0180914D0190914E01B0E0A0E0DC0106
:100EE00099278827820F931FA11DB11D40914901A9
:100EF00050914A0160914B0170914C018C019D0110
:100F0000041B150B260B370BB901A80140935201A6
:100F1000509353016093540170935501809349019C
:100F200090934A01A0934B01B0934C0181E08093D0
:100F30005101BF91AF919F918F917F916F915F917F
:100F40004F913F912F911F910F910F900FBE0F90D6
:100F50001F9018959093500180934F01EACFEFE5D1
:100F6000F1E01382128288EE93E0A0E0B0E0848387
:100F70009583A683B78384E091E09183808385EC99
:100F800090E09587848784EC90E09787868780EC53
:100F900090E0918B808B81EC90E0938B828B82EC44
:100FA00090E0958B848B86EC90E0978B868B118EEE
:100FB000128E138E148EEFE0F2E01382128286E11D
:100FC00091E09183808387E084838FEF858386E03F
:100FD000868389E0878384E0808783E0818782E05D
:100FE00082871386148615861686178681E00E94EE
:100FF0007104ACEFB1E08DE015968C9315978BE002
:1010000016968C931697EBEBF0E0E4911796EC9321
:101010001797E7EAF0E0E4911896EC93189740E808
:101020005EE360E070E01D964D935D936D937C935D
:1010300050970895789484B5826084BD84B58160AA
:1010400084BD85B5826085BD85B5816085BD809193
:101050006E00816080936E0010928100809181000B
:101060008260809381008091810081608093810003
:10107000809180008160809380008091B1008460C5
:101080008093B1008091B00081608093B000809126
:101090007A00846080937A0080917A0082608093E5
:1010A0007A0080917A00816080937A0080917A0042
:1010B000806880937A001092C100E0916F01F091F6
:1010C0007001C2E0C083E0916B01F0916C0110826D
:1010D000E0916D01F0916E018FEC808310927701A9
:1010E000E0917301F091740186E08083E0917101D9
:1010F000F0917201808180618083E0917101F091B3
:101100007201808188608083E0917101F0917201A9
:10111000808180688083E0917101F091720180810B
:101120008F7D808385E00E94710462E080910102DE
:101130000E941B012FB7F89480915B0190915C0194
:10114000A0915D01B0915E012FBF805D9740A10924
:10115000B1098093050290930602A0930702B09311
:10116000080287E380930E021092500110924F0103
:1011700010924E0110924D011092490110924A01B5
:1011800010924B0110924C011092510180918000FD
:101190008091810010928100109280001092850051
:1011A0001092840081E086BB10926F008091B000A5
:1011B0008091B1001092B100C093B0008CE7809391
:1011C000B30097E090934601C7BB1092B2002AEF9C
:1011D00030E030934801209347012FB7F894C3BD06
:1011E000809146018093B100C09370008BE08150E4
:1011F000F1F7909381002FBF60E08BE00E941B010C
:101200000BE31FE1C0E0D0E00E94AE01882341F073
:10121000809102028C3009F462C048F48B3001F1F5
:10122000C12CD12C20ECE22E2FE7F22E43C08551A9
:101230008230B0F7B090FE016B2D70E0762F6627FC
:1012400066277F778091FF01682B90E080E00E9405
:10125000BB0B2DEC3CEC4CEC5DE30E94720C5BC0D4
:101260006091FE0170E090E080E00E94BB0B6B019A
:101270007C01B090FF01B7FE0AC0AC019B0160E0A9
:1012800070E080E89FEB0E94A80A6B017C016B2D47
:101290006F7070E090E080E00E94BD0B2DEC3CECA4
:1012A0004CEC5DE30E94720CA70196010E94A90A12
:1012B0006B017C010E94AE01882351F080910202F3
:1012C0008B3030F08D3080F18551823008F42AC1A6
:1012D000412C512C90EC692E9FE7792E43C0B090A1
:1012E000FE016B2D70E090E080E00E94BB0B6B0173
:1012F0007C016091FF016F7070E090E080E00E94DF
:10130000BD0B2DEC3CEC4CEC5DE30E94720CA70194
:1013100096010E94A90A6B017C01B7FECBCFF7FAB8
:10132000F094F7F8F094C6CF6091FD0170E090E082
:1013300080E00E94BD0B2DEC3CEC4CEC5DE30E9488
:10134000720C4B015C016091FC0170E090E080E068
:101350000E94BD0B9B01AC01C501B4010E94A90A0A
:101360002B013C01E7E8F0E08491E9EBF0E0B49078
:10137000E5EAF0E0A490212C312CAA2091F0811113
:101380000E94C400EA2DF0E0EE0FFF1FE057FF4F70
:10139000A591B4918C91B82281E0312C09F480E0C0
:1013A000282E8FB7F8948090520190905301A0900E
:1013B0005401B0905501109251018FBF81E00E94FD
:1013C0006B04C8010197F1F7E1E0809122028111DD
:1013D000E0E0E195F0E0E15FFD4F848980680E94E4
:1013E0006B046AE271E08FE092E00E941D0522E04A
:1013F000B701A6018FE092E00E94AE0561E371E0C3
:101400008FE092E00E941D05E0912202E23008F098
:101410009BC0E150F0E0E15FFD4F848980680E944D
:101420006B0463E371E08FE092E00E941D0522E00F
:10143000B301A2018FE092E00E94AE0569E371E082
:101440008FE092E00E941D05E0912202E33008F057
:101450007DC0E150F0E0E15FFD4F848980680E942B
:101460006B046BE371E08FE092E00E941D05B10117
:101470008FE092E00E94780522E0B701A6018FE597
:1014800091E00E94AE0561E471E08FE591E00E9479
:101490001D0522E0B301A2018FE591E00E94AE0597
:1014A00061E471E08FE591E00E941D05B1018FE5D7
:1014B00091E00E94780561E471E08FE591E00E947F
:1014C0001D05092C000CAA08BB082AE0B501A401DF
:1014D000B7FE0DC06DE28FE591E00E94BD0244278A
:1014E0005527BA01481959096A097B092AE08FE58D
:1014F00091E00E942C0563E471E08FE591E00E9489
:101500001D0560ED77E080E090E00E947C0120976F
:1015100009F47ACE0E942E03882309F475CE0E9426
:10152000000072CE6091FC017091FD017627672763
:10153000762790E080E00E94BB0B2DEC3CEC4CEC5D
:101540005DE30E94720C0CCFE1E064CFE2E082CF59
:101550005058BB27AA270E94C00A0C94330C0E9443
:10156000250C38F00E942C0C20F039F49F3F19F420
:1015700026F40C94220C0EF4E095E7FB0C941C0C62
:10158000E92F0E94440C58F3BA17620773078407C7
:10159000950720F079F4A6F50C94660C0EF4E0950E
:1015A0000B2EBA2FA02D0B01B90190010C01CA011D
:1015B000A0011124FF27591B99F0593F50F4503EC8
:1015C00068F11A16F040A22F232F342F4427585FBA
:1015D000F3CF469537952795A795F0405395C9F7D2
:1015E0007EF41F16BA0B620B730B840BBAF091508A
:1015F000A1F0FF0FBB1F661F771F881FC2F70EC029
:10160000BA0F621F731F841F48F4879577956795FB
:10161000B795F7959E3F08F0B0CF9395880F08F0E7
:101620009927EE0F9795879508950E94F80B08F477
:1016300081E008950E942E0B0C94330C0E942C0C18
:1016400058F00E94250C40F029F45F3F29F00C94DB
:101650001C0C51110C94670C0C94220C0E94440C2D
:1016600068F39923B1F3552391F3951B550BBB27D1
:10167000AA2762177307840738F09F5F5F4F220F16
:10168000331F441FAA1FA9F335D00E2E3AF0E0E80D
:1016900032D091505040E695001CCAF72BD0FE2F57
:1016A00029D0660F771F881FBB1F261737074807EB
:1016B000AB07B0E809F0BB0B802DBF01FF279358A3
:1016C0005F4F3AF09E3F510578F00C941C0C0C943F
:1016D000670C5F3FE4F3983ED4F386957795679562
:1016E000B795F7959F5FC9F7880F911D96958795D8
:1016F00097F90895E1E0660F771F881FBB1F6217F7
:1017000073078407BA0720F0621B730B840BBA0BB4
:10171000EE1F88F7E09508950E944C0C88F09F57C3
:1017200098F0B92F9927B751B0F0E1F0660F771F05
:10173000881F991F1AF0BA95C9F714C0B13091F0FB
:101740000E94660CB1E008950C94660C672F782F08
:101750008827B85F39F0B93FCCF3869577956795C0
:10176000B395D9F73EF490958095709561957F4F2C
:101770008F4F9F4F0895E89409C097FB3EF49095D2
:101780008095709561957F4F8F4F9F4F9923A9F05A
:10179000F92F96E9BB279395F695879577956795E9
:1017A000B795F111F8CFFAF4BB0F11F460FF1BC02D
:1017B0006F5F7F4F8F4F9F4F16C0882311F096E9C0
:1017C00011C0772321F09EE8872F762F05C066236E
:1017D00071F096E8862F70E060E02AF09A95660F27
:1017E000771F881FDAF7880F9695879597F90895E0
:1017F000990F0008550FAA0BE0E8FEEF1616170622
:10180000E807F907C0F012161306E407F50798F089
:10181000621B730B840B950B39F40A2661F0232BA2
:10182000242B252B21F408950A2609F4A140A6951E
:101830008FEF811D811D089597F99F6780E870E003
:1018400060E008959FEF80EC089500240A94161636
:10185000170618060906089500240A94121613069E
:10186000140605060895092E0394000C11F488232C
:1018700052F0BB0F40F4BF2B11F460FF04C06F5F48
:101880007F4F8F4F9F4F089557FD9058440F551F1E
:1018900059F05F3F71F04795880F97FB991F61F0F2
:1018A0009F3F79F087950895121613061406551F69
:1018B000F2CF4695F1DF08C0161617061806991FD5
:1018C000F1CF86957105610508940895E894BB27CA
:1018D00066277727CB0197F908950E94F80B08F443
:1018E0008FEF08950E94850C0C94330C0E94250CF8
:1018F00038F00E942C0C20F0952311F00C941C0C55
:101900000C94220C11240C94670C0E94440C70F36C
:10191000959FC1F3950F50E0551F629FF001729F94
:10192000BB27F00DB11D639FAA27F00DB11DAA1FA3
:10193000649F6627B00DA11D661F829F2227B00DF0
:10194000A11D621F739FB00DA11D621F839FA00D7B
:10195000611D221F749F3327A00D611D231F849FCB
:10196000600D211D822F762F6A2F11249F57504022
:101970009AF0F1F088234AF0EE0FFF1FBB1F661F9D
:10198000771F881F91505040A9F79E3F510580F066
:101990000C941C0C0C94670C5F3FE4F3983ED4F35A
:1019A000869577956795B795F795E7959F5FC1F70A
:1019B000FE2B880F911D9695879597F908950E94A3
:1019C000F80B880B990B0895A1E21A2EAA1BBB1BDA
:1019D000FD010DC0AA1FBB1FEE1FFF1FA217B307FB
:1019E000E407F50720F0A21BB30BE40BF50B661F11
:1019F000771F881F991F1A9469F7609570958095D5
:101A000090959B01AC01BD01CF010895EE0FFF1F22
:101A10000590F491E02D0994F894FFCF00000000A8
:101A20006403C402F102B1032203000314030000A3
:101A300000001705C402D203D1036E616E00696E07
:101A400066006F76660054656D703A20004300486A
:101A5000756D3A200025004C756D3A20002C000D64
:021A60000A007A
:107E0000112484B714BE81FFF0D085E080938100F7
:107E100082E08093C00088E18093C10086E0809377
:107E2000C20080E18093C4008EE0C9D0259A86E02C
:107E300020E33CEF91E0309385002093840096BBD3
:107E4000B09BFECF1D9AA8958150A9F7CC24DD24C4
:107E500088248394B5E0AB2EA1E19A2EF3E0BF2EE7
:107E6000A2D0813461F49FD0082FAFD0023811F036
:107E7000013811F484E001C083E08DD089C08234E0
:107E800011F484E103C0853419F485E0A6D080C0E4
:107E9000853579F488D0E82EFF2485D0082F10E0AE
:107EA000102F00270E291F29000F111F8ED06801E7
:107EB0006FC0863521F484E090D080E0DECF843638
:107EC00009F040C070D06FD0082F6DD080E0C81688
:107ED00080E7D80618F4F601B7BEE895C0E0D1E017
:107EE00062D089930C17E1F7F0E0CF16F0E7DF06D8
:107EF00018F0F601B7BEE89568D007B600FCFDCFD4
:107F0000A601A0E0B1E02C9130E011968C91119780
:107F100090E0982F8827822B932B1296FA010C0160
:107F200087BEE89511244E5F5F4FF1E0A038BF0790
:107F300051F7F601A7BEE89507B600FCFDCF97BE46
:107F4000E89526C08437B1F42ED02DD0F82E2BD052
:107F50003CD0F601EF2C8F010F5F1F4F84911BD097
:107F6000EA94F801C1F70894C11CD11CFA94CF0C13
:107F7000D11C0EC0853739F428D08EE10CD085E9AC
:107F80000AD08FE07ACF813511F488E018D01DD067
:107F900080E101D065CF982F8091C00085FFFCCF94
:107FA0009093C60008958091C00087FFFCCF809118
:107FB000C00084FD01C0A8958091C6000895E0E648
:107FC000F0E098E1908380830895EDDF803219F02E
:107FD00088E0F5DFFFCF84E1DECF1F93182FE3DFCA
:107FE0001150E9F7F2DF1F91089580E0E8DFEE27F6
:047FF000FF270994CA
:027FFE00040479
:00000001FF
